:020000040800F2
:10000000803D002029310008E52D00081531000849
:1000100015310008153100081531000800000000F6
:100020000000000000000000000000004D32000849
:100030001531000800000000E53100089941000872
:10004000E1330008E1330008E1330008E133000840
:10005000E1330008E1330008E1330008E133000830
:10006000E1330008E1330008E1330008E133000820
:10007000E1330008E1330008E1330008E133000810
:10008000E1330008E1330008E1330008E133000800
:10009000E1330008E1330008E1330008E1330008F0
:1000A000E1330008E1330008E1330008E1330008E0
:1000B000E1330008E1330008E1330008E1330008D0
:1000C000E1330008E1330008E1330008E1330008C0
:1000D000E1330008E1330008E1330008E1330008B0
:1000E000E1330008E1330008E1330008E1330008A0
:1000F000E1330008E1330008E1330008E133000890
:10010000E1330008E1330008E1330008E13300087F
:10011000E1330008E1330008E1330008E13300086F
:10012000E1330008E1330008E1330008E13300085F
:10013000E1330008E1330008E1330008E13300084F
:10014000E1330008E1330008E1330008E13300083F
:10015000E1330008E1330008E1330008E13300082F
:10016000E1330008E1330008E1330008E13300081F
:10017000E1330008E1330008E1330008E13300080F
:10018000E1330008E1330008E1330008E1330008FF
:10019000E1330008E1330008E1330008E1330008EF
:1001A000E1330008E1330008E1330008E1330008DF
:1001B000E1330008E1330008E1330008E1330008CF
:1001C000E1330008E1330008E1330008E1330008BF
:0801D000E1330008E1330008EF
:1001D8007BB972B90029BEBF00204FF0004106E08C
:1001E80008BF00281CBF6FF000414FF0FF3000F03F
:1001F80057B8ADF1080C6DE904CE002909DB002BD6
:100208001ADB00F04FF8DDF804E0DDE9022304B062
:100218007047404261EB4101002B1BDB00F042F8C4
:10022800DDF804E0DDE9022304B0404261EB41015E
:10023800524263EB43037047524263EB430300F0BF
:1002480031F8DDF804E0DDE9022304B0404261EB57
:1002580041017047524263EB430300F023F8DDF895
:1002680004E0DDE9022304B0524263EB4303704724
:1002780053B94AB9002908BF00281CBF4FF0FF3105
:100288004FF0FF3000F00CB8ADF1080C6DE904CE6A
:1002980000F008F8DDF804E0DDE9022304B0704757
:1002A800704700BF2DE9F04786468C460846089EF1
:1002B800154674461946002B40F0C2808542B2FAB2
:1002C80082F245D94AB1C2F1200300FA02FC2EFAA3
:1002D80003F3954043EA0C0C94404FEA154EA8B23C
:1002E800BCFBFEF8230C0EFB18CC08FB00F943EA14
:1002F8000C43994528D9EB1808F1FF3704D29945E2
:1003080002D9A8F102072B44A3EB0903A4B2B3FB5B
:10031800FEFC0EFB1C330CFB00F044EA0344A04235
:1003280014D92C190CF1FF3304D2A04202D9ACF134
:1003380002032C44241A43EA07401EB1D440002388
:1003480034607360BDE8F0874746DDE76346F1E750
:1003580092BB431B01214FEA154EAFB2B3FBFEFC23
:10036800200C0EFB1C330CFB07F840EA03439845AE
:1003780062D9EB180CF1FF3004D2984502D9ACF1E0
:1003880002002B44A3EB0803A4B2B3FBFEFC0EFB54
:100398001C330CFB07F744EA0344A7424ED92C1937
:1003A8000CF1FF3304D2A74202D9ACF102032C446A
:1003B800E41B43EA0040C0E7C2F1200320FA03F13E
:1003C800954090402EFA03F303434FEA154EAFB21F
:1003D800B1FBFEFC0EFB1C10190C0CFB07F841EAE4
:1003E8000041884504FA02F422D969180CF1FF305B
:1003F80004D2884502D9ACF102002944A1EB0801D6
:100408009BB2B1FBFEFC0EFB1C110CFB07F743EA89
:1004180001439F420ED9EB180CF1FF3104D29F42E1
:1004280002D9ACF102012B44DB1B41EA004192E7FF
:100438006046E3E76146F7E76046A3E76346B7E748
:10044800834206D916B9002108467BE7C6E900E0D1
:10045800F9E7B3FA83F78FB9834201D3724508D815
:10046800BEEB020460EB030301209C461EB9002189
:1004780068E73846FAE7C6E9004CF8E7C7F1200C08
:10048800BB4022FA0CF41C432EFA0CF120FA0CF3B0
:10049800B84001434FEA14490EFA07F5B3FBF9F8DF
:1004A8001FFA84FE09FB18300B0C08FB0EFA43EA0E
:1004B80000439A4502FA07F240D9E31808F1FF30E1
:1004C80004D29A4502D9A8F102002344A3EB0A03F7
:1004D80089B2B3FBF9F809FB183308FB0EFE41EAB1
:1004E80003418E452CD9611808F1FF3304D28E459B
:1004F80002D9A8F10203214443EA0040A0FB029874
:10050800A1EB0E014145CE46434602D306D14D45E7
:1005180004D2B9EB020E68EB04030138002EA6D012
:10052800B5EB0E0261EB030101FA0CFC22FA07F3AA
:100538004CEA0303F940C6E9003198E74046C5E7AD
:100548004346D9E710F8012B11F8013B012A28BFCF
:100558009A42F7D0D01A7047034611F8012B03F8D6
:10056800012B002AF9D17047034613F8012B002A02
:10057800FBD1181A013870472DE9F04704468AB0B4
:100588008846174607F0CDFE0A220023FFF770FEC3
:10059800B8F1010F06460D4608D1CDE900012A4AF7
:1005A8000821204606F010FA002012E07F6827484C
:1005B8003946FFF7C7FF78B125483946FFF7C2FF2C
:1005C80050B12046234A3B46012106F0FDF96FF061
:1005D80004000AB0BDE8F0873046294618A3D3E9DD
:1005E8000023FFF7F5FD06460D46104619461A4A40
:1005F8000023FFF7EDFD80460F46104619464EF6DC
:1006080060220023FFF7E4FD82468946104619461A
:100618004FF47A720023FFF7DBFDCDE904A9CDE999
:100628000601CDE90823CDE90287CDE900650B4A2B
:100638000821204606F0C8F9B6E700BFAFF30080EE
:10064800005C26050000000091970008A2970008AA
:10065800A5970008AE97000880EE3600C5970008F9
:10066800014804F0D3BE00BF3000002002484FF418
:10067800FA72002304F032BF0000002000F1780174
:10068800014805F04EBF00BFAC96000808B5054A02
:10069800082106F099F90448002104F017F8002011
:1006A80008BD00BFB19600088506000813B50C48C0
:1006B8000469836801A95B68984720B92368019891
:1006C8005840C0F34030012808D1064906480023A5
:1006D8000B6002B0BDE8104007F0A8BD02B010BD25
:1006E800C08A0008740600208C0100200248836834
:1006F80020215B69184700BFE88A0008F8B51C4844
:100708004FF4803105F021FD1A488468A56965B168
:1007180003691B6813F4005F14BF4FF000734FF0B8
:1007280080634FF0A0720D21A8471349134B4B600B
:100738004FF400538B60E36913B10E4801229847C8
:100748000F4D104E104F00220023284604F00EFDD6
:1007580040B1046834B9304605F0E3FE2146384616
:1007680003F0B4FF00214FF47A7004F011FCEAE7BB
:100778008C8F0008C08A00086806002075060008EB
:100788008C010020C79600088506000830B504468D
:1007980008F0F2F8084B185885B0D0F89C5003A917
:1007A80007F055FB2046039B044A0095082106F0F4
:1007B8000BF9002005B030BD08000000D1960008F4
:1007C80007B508484FF4D01105F0BFFC41F2883254
:1007D80000230548CDE9002305F052F8002003B0B6
:1007E8005DF804FB948F0008400100202DE9F041DA
:1007F80007460E46154600F08FF8C36804461BB935
:1008080043691A78002A41D10023E3606368BB4238
:1008180056F8232008DB324B6361204600F062F86B
:100828004FF0FF30BDE8F081511C616192F8008003
:10083800B8F12D0FEFD1911C61615178A1602D297C
:1008480004D192786AB901336360E4E749B9244B6B
:1008580063614146284607F0AEFF0028DDD0C4F8A2
:100868000880D4F808802846414607F0A4FFB8F16C
:100878003A0F636900D070B91B7813B96368013304
:100888006360204600F02EF83F20CBE75A1C4261F7
:100898001B788360E5E742783A2A0BD00022226170
:1008A8001B7813B9636801336360204600F01AF8B7
:1008B800A068B7E718786268094928B901329742F1
:1008C800626004DD56F82230C4E90431EAE7616168
:1008D8002D783A2D2046D5D100F004F82846A1E716
:1008E800F1980008074B02681A60074B42681A60C3
:1008F800064B82681A60064BC2681A60054B02698B
:100908001A6070475C000020580000208006002014
:100918007C06002078060020004870474000002030
:10092800014B1B68184700BF60000020014B18608E
:10093800704700BF6000002030B585B004460D4602
:1009480010220021684608F006F802238DF80230CC
:100958002A46044B01932146684605F09FF905B0E5
:1009680030BD00BF2909000880B505460E46174668
:10097800984604F02BFB034607F0FEFFDFF81890BB
:10098800044649F80030424630463946A84754F8EC
:10099800090002F0F3FB00BF0800000008B5044698
:1009A8004FF01002EFF3118382F31288BFF36F8FB9
:1009B80007F006FA204602F0CFFB034805F0B1FD28
:1009C80002F0F0FCFCE700BF4F9700080D4B0E4A01
:1009D8001A600E4A536843F0010353600C4B9A6D3A
:1009E80042F080529A659B6D0A4A82B003F08053A8
:1009F8000193019B9368002043F48043936002B005
:100A0800704700BF040100200024F400002004E027
:100A18000010024000700040034A536823F00203AC
:100A280053600020704700BF002004E0014B0360C2
:100A3800002070479C8F000813B5044603F0BEFFE2
:100A4800C0F307230193C0F307430093044A030E3E
:100A58000821204605F0B8FF002002B010BD00BFF5
:100A68007897000810B5044603F03AFC084A034694
:100A78000821204605F0A8FF064A2046082105F06F
:100A8800A3FF0548214603F021FE002010BD00BF4A
:100A98001398000832980008A50A000870B58EB0AF
:100AA80004460D46D0F89C6007F0C1F9024607F0ED
:100AB80063FF254B1958254B002A18BF1346CDE96B
:100AC8000043234A234B28468C4218BF1346224A28
:100AD800082105F079FFD4E90A23CDE9022394F926
:100AE8000E300093237B1D4A2846082105F06CFF31
:100AF80006A92022204603F031FE626E00920346CA
:100B0800174A0821284605F05FFF05A9204607F087
:100B18009EF9034630B1134A0821284605F054FFD0
:100B28000EB070BD059A6423B11ACDE900214B437C
:100B38000D4AB3FBF6F30821CDE902632846334694
:100B480005F042FFECE700BF080000003C980008F1
:100B5800A3A0000857A900083F9800084B98000870
:100B6800779800088E980008BB980008F0B5002513
:100B780093B0044629460AAF1C220BA807F0EBFEE7
:100B8800144E1A222021384607F0E5FE2146124865
:100B980003F09CFD09AA4FF40061304607F04BF9B9
:100BA80009996422C1F5006042434FF40063D20AF8
:100BB800CDE90403CDE9023106922046CDE900577C
:100BC800064AA6F14003082105F0FEFE284613B0A8
:100BD800F0BD00BF00300020450C0008F298000866
:100BE80010B5044603F09AFB034A03460821204641
:100BF80005F0EAFE002010BD3B99000837B5134602
:100C080000220192054601AA58680A2101F0CAFB90
:100C1800019C4CB920EAE0700A2180FB010104F034
:100C2800B7F9204603B030BD2346034A01212846C0
:100C380005F0CAFE019CF4E751990008F0B5044696
:100C4800D0F89C6089B00D4607A907F000F9034663
:100C580030B1104A0821284605F0B6FE09B0F0BDAB
:100C6800204607F0E4F80C4F079A002818BF0746FB
:100C7800B11A6423CDE902214B43CDE90076B3FBD9
:100C8800F6F3064ACDE9046308212346284605F011
:100C98009BFEE3E78E9800083C98000871990008CD
:100CA8002DE9F04387B00546684603F0E9FB009E4E
:100CB800184A194FDFF86480DFF86490142303FBA7
:100CC80000660821284605F07FFE009CB44203D345
:100CD800002007B0BDE8F08323680BB11A7832B959
:100CE80023463A46142101A804F0D8FE01AB424637
:100CF8000821284605F068FE204607F077F8094BDA
:100D0800094A002808BF4B460821284605F05CFE22
:100D18001434DBE7C69A0008D09A0008D59A000870
:100D2800BD9A0008B79A00082AA100088B1E022B5A
:100D38002DE9F04107468846144637D860681022E6
:100D4800002104F047FFB8F1020F064607D1264AF2
:100D580020230821384605F037FE336816E00A22BA
:100D68000021A06804F036FFC5B21F4A2B460821AF
:100D7800384605F029FEB8F1040F1AD0102D0DD011
:100D8800202DEAD0082D0CD13378DBB2174A082180
:100D9800384605F019FE0020BDE8F08133889BB283
:100DA800F4E7134A0821384605F00EFE6FF01500E7
:100DB800F2E7E0681022002104F00CFF0D4A034618
:100DC80004460821384605F0FFFD102D06D0202DD9
:100DD80007D0082DE5D1E4B23470DCE7A4B2348042
:100DE800D9E73460D7E700BF0E9B0008399B00089D
:100DF800239B00084A9B00082DE9F04F584BDFF869
:100E080064A191464FF0FF35012285B00746884618
:100E18001A6020262C46494652464046FFF7E6FC13
:100E2800411C07D16A1C52D14F4A0121384605F0AE
:100E3800CBFD1DE0732820D0772833D0612817D147
:100E4800DFF828B11022DBF80000002104F0C2FE10
:100E580005460028DFD107F08FFD454B1B58162BA0
:100E6800D9D1DBF80030434A0121384605F0ACFD02
:100E78006FF0150005B0BDE8F08FDFF8F0B0002284
:100E8800DBF80000114604F0A5FE04460028C2D194
:100E980007F072FD364B1B58162BBCD1DBF800301F
:100EA800354AE1E7DFF8C4B00022DBF8000011465C
:100EB80004F090FE06460028ADD107F05DFD2C4BEE
:100EC8001B58162BA7D1DBF800302C4ACCE7631C43
:100ED80001D12B4AA9E75FFA86F8C6F3C406002CAD
:100EE8003CD06B4629461A46A6EB050C0CE0B8F137
:100EF800100F1DD0B8F1200F20D0B8F1080F2AD15B
:100F08000878187031443344A64203D80CEB01002A
:100F18001028ECD9102CA14628BF4FF010092946FB
:100F28004B46384601F032F81035A4EB0904D6E7F1
:100F3800088880B21870000A5870E3E708681870CB
:100F48004FEA102E83F801E04FEA104E000E83F8A6
:100F580002E0D870D6E70B4A082167E7204689E700
:100F680058000020989B00089F9B000878060020E6
:100F78000C0000005E9B0008719B0008849B000821
:100F8800BC9B0008239B000870B5104E04463378BC
:100F98000D4681B12BB1BDE870400D4A012105F025
:100FA80013BD012333700B4A0821204605F00CFDC0
:100FB8000123337004E083F001033370002BF2D176
:100FC80029462046BDE8704005F023BD040B0020EB
:100FD800D69B0008119C000870B504463C4803786D
:100FE800182B02D10B78112B31D0013A0B468D18F2
:100FF800AB4225D18B5C0A780370A2F13003092B30
:10100800344C04D922F02003413B052B04D8236833
:101018003149CA54013323602368022B34D110228A
:101028002D48002104F0D6FD2C4A136803F8010B63
:1010380013602B4A1368013313600023236023E0F5
:1010480013F8016B182ED3D11E78112ED0D1244D50
:10105800244A2B680821204605F0B6FC20460021CA
:10106800FFF792FF204B187870B9204A2B68116857
:10107800042B0ADC08B111602B6013F003010BD1BB
:10108800126813681BBA136070BD086800BA41F88B
:10109800040B043B0120EBE75B4203F0030358BF5A
:1010A8005942022904D1126813885BBA9BB2EAE755
:1010B8000329E9D1106802681104C2F3074301F457
:1010C8007F010B4302F47F4213430360DCE700BF58
:1010D800050B002084060020070B00209006002046
:1010E800880600203B9C0008060B00208C06002088
:1010F8002DE9F84F0C462B49DFF8AC80DFF8AC90AF
:10110800DFF8ACB000230B602A4988F800300646A7
:101118000B601546012C2F4655F804AF1ED9022244
:101128004946504607F054FB80B99AF80220003A25
:1011380018BF0122924420490222504607F048FB7A
:1011480030B9012388F80030013CE3E70022F1E7D9
:1011580049465046FFF7F6F9A8B904370022114668
:10116800786804F0C7FC154B0022114618607868AF
:1011780004F0C0FC124B134918603046FFF704FF17
:101188000020BDE8F88F9AF800202D2AE6D19AF8B9
:101198000120002AE2D053465A460821304605F07D
:1011A80013FCD1E784060020060B0020559C00089C
:1011B8005B9C000888060020589C000890060020C8
:1011C8008C060020E10F000813B5094806F00EFE52
:1011D80058B1084A064912680748002400940123B8
:1011E80000F0B8FD204602B010BD6FF01200FAE71B
:1011F800FC8A000828910008888E000810B5446809
:10120800C4E90012A36042684023D36402F1580382
:10121800136300230821C2E90E33C2E91133C2E97E
:101228000633C2E90933D1621468536302F15001ED
:101238001364116153611362C2F8D030A36823B1FB
:101248009B6C13B1044920469847A3689B6A0BB16D
:1012580020469847002010BD6167000810B58168D6
:101268000446083101F076FBA168034A204608319C
:10127800BDE8104001F014BBD09D000838B5836864
:10128800D3F86432DB0704461AD4406803685B6805
:101298009847054620B9E06805F037FFA3681D7137
:1012A800A3685B6B13B1294620469847A36807F0EB
:1012B80063FB0022C3F80C23034B185801F05EFFB0
:1012C8006FF00F05ECE700BF08000000014905F0CA
:1012D800F7BA00BFF0980008F7B504468068D0F860
:1012E80064325A070D4605D5002105F00DFBE0686C
:1012F80005F0DDFEE368DB6873B9002D39D0A66818
:1013080006F14207384605F0D5FA002833D03946A9
:1013180006F5A170FFF720F9A268E0680DF1060351
:101328004232294605F0C6FE58B9A06800F5A171F9
:101338004230FFF711F9A068423005F0BBFAADF86A
:101348000600204605F0D7FCA368D3F860329B0658
:1013580003D50A49606905F0B3FA204601F0C6F8DA
:10136800A268BDF80630D387A2682046938705F0A7
:101378006CFC03B0F0BD86F84201CDE7FC8E000896
:101388002DE9F04F9FB004463422002111A807F040
:10139800E2FA0023CDE90533A368204642330293DD
:1013A80005F0AFFC204605F039FC10B96069FFF77D
:1013B8008DFFA06814220021083007F0CCFA2046DF
:1013C80000F0B8FFA168E0688A8F4231002605F076
:1013D800A8FE204605F027FF4FF0FF37B2460396D8
:1013E8000DF14408B3463546B146DDE90532012A18
:1013F8006CD00B2B6DD857BBBBF1000F09D0204622
:1014080005F031FFA2680C23423211A905A800F0AB
:1014180045FEB9F1000F0CD099F81130FE2B08D118
:10142800059B1EAA02EB830252F8342C0AB1013341
:101438000593A068059D4369002B40F0B680CEB1A6
:10144800C3689E422DD00D9600F1080524E0029A4B
:101458000223414606A800F021FE0699D8F8042088
:101468000292034631B101290AD148B16C4A20469B
:1014780005F0EFFC6FF0070528461FB0BDE8F08FB8
:10148800059B002B34D0D8F8000001F083FA98B1FE
:1014980066B1A5680D9608350CAE0FCE0FC533683A
:1014A8002B602046FFF7DAFE0125E5E75D4A0121BA
:1014B800204605F0CEFCDDE7059BCBB1D8F800202F
:1014C8002946204601F018FC022809D1059B0B2B60
:1014D80092D9069B022B8FD1534B544A0121C6E760
:1014E800032805D0059B013305934FF0010B7CE7DA
:1014F800039B33B9D8F8001007AA484605F016FB35
:10150800054608F10408013F9DB3EB68BBF1000FE5
:1015180008D0F3B1204605F0F4FB204605F095FB12
:10152800434AC4E7ABB1A368DDF814A0AE4603F1A3
:10153800080CBEE80F00ACE80F00DEF80030CCF86D
:101548000030AB682BB96B7CFE2B04BF2F7C07F1F6
:10155800FF37D5F804C0BCF1000F08D0AE46BEE88E
:101568000F000CAE0FC6DEF8003033606646A946A1
:1015780003E0059B53B101230393069B17B9022B84
:101588007FF433AF059B013305932EE7A368DB692E
:1015980013B1DB68002BEED1264B0093264A119B32
:1015A8000121204605F055FCE5E7037EA5EB0A0579
:1015B800B3B1417E4FF6FF72FF2918BF0A469D421C
:1015C80002D313449D420BD983681C4A012120464B
:1015D80005F03FFC2046FFF741FE6FF015054BE78D
:1015E800012105F086F9A06800F53E7005F0A5F91F
:1015F800A36811AA294602EB8A025B69204698472C
:101608000546A0684FF0FF324FF0FF3300F53E70FB
:1016180005F063F9A068002105F06BF92CE700BF1D
:10162800DE9D0008F29D0008539E0008AD96000854
:10163800109E00083F9E000842A10008779E0008FF
:1016480010B5836802221A7183689B6B0446BBB984
:1016580005F0F3F88368D3F86432DB040BD5032173
:10166800084B094A05F0F5FBA0686FF4805100F5B6
:10167800197005F0FAF82046BDE8104001F080B86E
:1016880010BD00BF929E0008D79A00082DE9F04FC0
:1016980004468068A9B0012100F5197005F0D6F854
:1016A800A3681B79022B20D100230993A3686068E3
:1016B8009E6B03681D6909AB0EB310221BA9A847CE
:1016C800099B93B1A068012105F013F9099A1BA998
:1016D8002046B047A068002105F00BF9A3689B6B72
:1016E800002BE3D12046FFF7ABFFA0686FF00101A4
:1016F80000F5197029B0BDE8F04F05F0B6B8012221
:101708000DF12301A847099B002BEED09DF923106A
:101718009DF82330A2680029C8DB5179032900F21B
:101728000A83DFE811F004008902A10208030D2BE7
:1017380055D00A2B32D0B2F864126FF3CA01A2F85E
:101748006412092BA0685FD013D8002BAED0082BE9
:1017580000F0D7815A1C8949A068D2B28A5C12F07D
:10176800970F00F0DA81012105F0CEF89DF82310DB
:10177800FAE01B2B45D07F2BECD1D0F860329D07C7
:1017880094D5012105F0C0F8A368D3F86032190791
:1017980000F1BF81204605F09EFB87E7D2F864126E
:1017A800C1F3C70129B1D2F86412C1F3C7010A29EC
:1017B800D0D1B2F8641263F3CA01A2F86412A56822
:1017C800A98FC1B9284605F09FF8E06805F06FFCBD
:1017D8006069FFF77BFD2046FFF732FF66E7D2F826
:1017E8006412C1F3C7010029E3D0D2F86412C1F32F
:1017F800C7010D29DCE72046FFF7C2FDC5F8100335
:10180800E9E70123437151E7D0F860329A077FF581
:101818004DAF012105F078F8A068838FFF2B3FF4C6
:1018280045AFC28F00F1420100F5A17007F06BF8D7
:10183800A368DA8F1344002583F84251A2681BA9D4
:101848000C2302F5A1720BA800F028FC0B990C29B7
:101858003FF62CAF28AB03EB8103DFF824A143F854
:10186800345CA368DA8F134493F841301AF80330D4
:1018780019B11B0752D401294FD100250A950A9B9B
:1018880028AA02EB8303002653F834BC584605F017
:1018980011F8374681460496B04616AA41462846AE
:1018A80000F0D8FC0346002844D1012ED4F8088063
:1018B80068D10A9B28AA02EB830353F8340C04F07E
:1018C800F9FF08F1080206463946284600F0C2FC2E
:1018D8000568284604F0EEFF864205D0821B92B2C6
:1018E800A919204605F0F5FAA068C38F034493F8B8
:1018F80042301AF8031011F0080139D1D0F86032DB
:10190800DF0730D505F00AF82021204600F002FF55
:10191800A068012105F002F8C8E6013900200CABE7
:10192800009301900AAB1BAA05F02BF90546002885
:10193800A5D1BBE61B6803934A465946184606F0EC
:1019480047FF68B9039B1846FEF70EFE049B8342C7
:1019580038BF03469BB2002E08BF474604930136A2
:1019680008F1010899E72021204600F0D3FE9DE602
:101978000121204605F09BF998E600BF49A8000818
:101988004AA8000805907FF691AE0A9A28AB03EBA7
:101998008202B94652F8343C0393184604F08AFF91
:1019A800059B0690A8F830300596A268494608328B
:1019B800284600F04FFC039BD0F800B009F101095C
:1019C8004BB1BBF1000F06D0069A1946584606F0EF
:1019D800FFFE0028E9D1D4F808A0BBF1000F4ED1D2
:1019E800AAF830B0059B013B0593DED16069FFF78B
:1019F8006DFC204600F0C4FE0A9B28AA02EB830374
:101A080007F1010953F8340C04F054FF394611AAC0
:101A18008046284600F01EFC0746A0683968FF2269
:101A280000F5A17006F0E6FE3B6803934FF6FF77DA
:101A3800BA4616AA4946284609F1010B00F00AFCE5
:101A4800002852D0A168036801F24111002211F860
:101A580001EF985C704503D110B101325245F6D1BF
:101A6800B8F1000F01D0424507DBBA4206F1FF3654
:101A7800A8BF3A46012E97B237D0D946D9E7AF4822
:101A880004F018FF049B00EB0308BAF82A301FFA89
:101A980088F81B1A584693FBF8F39BB2079304F097
:101AA80009FFBAF83010079BB1FBF3F2A8EB000866
:101AB800481C03FB121189B21FFA88F8AAF83000F3
:101AC80061B99E4B9E4ACDF800B00621204605F02C
:101AD800C0F94146204600F0B7FC83E7994A5B46C7
:101AE8000621204605F0B5F9F3E7002F3FF4DEADF7
:101AF8000399A7EB080292B24144204605F0E9F9A0
:101B0800D4E5D0F860329E077FF5D0AD012104F00E
:101B1800FBFE204605F0FAF9C8E5D0F860229207E6
:101B28007FF5C4AD013B162B3FF6C0AD01A252F8BC
:101B380023F000BF111D0008991B0008A11B000815
:101B48009D170008051D0008BF1B0008B5160008F2
:101B5800B5160008B5160008B5160008C71B00081A
:101B6800CF1B0008B5160008F91B0008B5160008B9
:101B7800031C0008B5160008B5160008B5160008BD
:101B8800B5160008071C0008B5160008311C000827
:101B9800204605F0BDF889E5204605F0B2F8204654
:101BA80005F03CF810B96069FFF790FBA0680121C7
:101BB80004F0AAFE0FE6204605F0B2F876E52046C6
:101BC80005F0B7F872E5D0F860329F0603D55E4994
:101BD800606904F075FEA368D3F860329E0603D5E9
:101BE8005A49606904F06CFE204600F0C9FD5DE5C5
:101BF80000212046FFF770FB58E50121F9E7204650
:101C080005F079F8204604F018FE0121A06804F0D8
:101C18007BFEA368D3F860329D067FF547AD4C493B
:101C2800606904F04DFE41E5204600F0D9FCA0684B
:101C3800012104F069FE39E55B2B02D102235371BF
:101C480034E5D2F86022900706D5622B08D14FF010
:101C5800FF31204600F00EFCA36800225A7125E5EA
:101C6800662BF9D10121F4E700215171A268D2F85D
:101C7800601289077FF51AAD313B1B2B3FF616AD75
:101C880001A151F823F000BF0D1D0008191D00081F
:101C98002D1D0008011D0008B5160008B51600081E
:101CA800B5160008B5160008B5160008B5160008E0
:101CB800B5160008B5160008B5160008B5160008D0
:101CC800B5160008B5160008031C0008F91B000823
:101CD800BF1B0008991B0008B5160008051D000861
:101CE800B5160008111D0008B5160008B51600083D
:101CF800B51600081D1D000803235371204605F082
:101D080000F8D3E403235371204604F0F4FFCDE434
:101D180003235371A068D0F8601201F0010181F02B
:101D28000101F7E503235371A368D3F860329B07D9
:101D38007FF5BCAC2EE5002381E700BFA2A0000818
:101D4800D69E0008D79A0008018F0008068F000861
:101D5800FC8E00082DE9F043044680688846D0F8D8
:101D68000C1389B015461F46002967D14FF44572F8
:101D780006F0F1FDA36822681A60E06805F039FAF8
:101D8800A06800F53E7006F0D7F94FF42A794FF4B1
:101D98001A76A068304406F06FFCA0680022831908
:101DA80001214844103606F03DFCB6F52A7F09F1BA
:101DB8001409EED1A36900261E60A068022100F56F
:101DC800197004F043FDA36850225A85A3681822AD
:101DD8001A85D4F80890D9F8000004F06BFD89F84A
:101DE8002C00A368174A66F38205C3F8605260683E
:101DF800036841461D682346A8470546D0B9A3682D
:101E080001221A71D4E9090100220023CDE9062331
:101E18000E230393109B0495CDE9017300940A4B9C
:101E28004FF4005202F052FDA368C3F80C03216A74
:101E380002F084FC284609B0BDE8F0836FF077050E
:101E4800F8E700BFE7680008A91E000810B50446B7
:101E580080680379012B1DD14FF0FF324FF0FF331B
:101E680000F53E7004F039FD2046082100F07AFBA9
:101E7800206804F01FFD18B10849606904F020FDCE
:101E88002046FFF7DDFBA06800F53E7004F055FD25
:101E9800002010BD6FF08500FBE700BFEF98000839
:101EA800F8B504464068036800219B6898470028F5
:101EB8003FD12046FFF7CAFF00283AD11D4E1E4FDA
:101EC800A06800F52A704FF0FF324FF0FF3303216E
:101ED80003F010FD0546A0684FF0FF324FF0FF33C6
:101EE80000F53E7075B104F0F8FC20462B46134A05
:101EF800012104F0AEFFA068BDE8F84000F53E708F
:101F080004F01BBD04F0E9FC32460221204604F02F
:101F1800BBFC20463A46294604F0B6FC60680368D4
:101F28005B6903B19847A06800F53E7004F005FDB1
:101F3800C6E7F8BD8512000895160008DC9E000863
:101F480010B50D4A0446082104F03EFD20460B4A10
:101F5800082104F039FD2046094A082104F034FD1F
:101F68002046084A082104F02FFD2046064A002191
:101F780000F096FC002010BDF39E0008319F000879
:101F8800909F0008E49F00087EA00008F8B51E4650
:101F980017460B462F4A0821044604F015FD6EB378
:101FA8003B782D4A0821204604F00EFD01256A07DA
:101FB80004D12A4A0821204604F006FDAE4223D95E
:101FC8007B5D254A0821204604F0FEFC0135102DD2
:101FD800EDD1234A0821204604F0F6FCD6B91F4A61
:101FE8000821204604F0F0FC0125AE422B4613D808
:101FF8001A4A0821204604F0E7FC19E0194A08218A
:10200800204604F0E1FC0125164A0821204604F088
:10201800DBFCDBE700252B46FB5C134AD25C12F0A5
:10202800970F08BF2E23114A0821204604F0CCFC44
:102038000135102D07D06B07D7D1084A0821204653
:1020480004F0C2FCD1E72046094ABDE8F84008215F
:1020580004F0BABC94A000089BA00008A3A0000844
:10206800A5A00008A1A000084AA80008C7A0000869
:10207800A7A0000810B5044613460A4601460648BC
:1020880001F018FB23691B7923B12046BDE81040F5
:1020980004F0C5BC10BD00BF3F6A00082DE9F04F31
:1020A80085B00026DFF8A8A1019107461446994695
:1020B8000660B3462378002B00F0C6801AF8033078
:1020C80013F0080304D004F801BBF3E70026F1E796
:1020D8003A68511C3960019941F822403A684A45EA
:1020E80000F0B2801E4621780029E3D0A6B90E463A
:1020F80023461C46272E04D05C2E20D0222E40F0EA
:102108009780204604F0B5FC611C0246204606F084
:1021180008FC21780029CDD0B142A04604F1010481
:102128001BD1404604F0A5FC21460246404606F075
:10213800F8FB98F800604446002ED9D1BAE720464B
:1021480004F097FC651C02462946204606F0E9FB88
:1021580066782C46002ECDD1ACE75C2998F80110A2
:10216800D8D1B1428C4608D1404604F082FC2146C1
:102178000246404606F0D5FBB5E7302925D10025B3
:10218800022218F802C0ACF13000C0B2072819D8F2
:10219800ED000132EDB2052A45EA0005F1D1511EE4
:1021A800414440460392029104F063FC039A029969
:1021B800023A821A404606F0B4FB98F8011088F8F3
:1021C8000050A7E7D2B2022AE9D1BCF1780F2AD190
:1021D8000025022018F80020A2F1300C5FFA8CFCD0
:1021E800BCF1090F09D82D01EDB24CEA050502280A
:1021F80001D00422D3E70320ECE7A2F1610CBCF183
:10220800050F05D82D01EDB2573A1543EDB2EEE7AB
:10221800A2F1410CBCF1050F03D82D01EDB2373AFC
:10222800F3E7022802D108F1010473E70322B6E7B5
:102238001AF806301B073FF549AF6678631C002E75
:102248007FF457AF1C4635E7304605B0BDE8F08F40
:102258004AA8000838B50B46154648B91449154A26
:10226800521AB3EB920F05D251F82350284638BDC5
:1022780084680CB90025F9E70F4A94420AD30F4A3B
:10228800944207D218462268294690472B68002BAB
:10229800ECD1EFE70A4A944202D30A4A944205D3A2
:1022A800246814225343E518E358F0E70133F8E7AC
:1022B800B48E0008E08E0008F48E0008F48E000842
:1022C800E08E0008F48E00082DE9F843074604F074
:1022D800D0FB054630BBBDE8F88354B18AB2AA1AD0
:1022E800013001323944384406F01BFB2C1BA5B2DF
:1022F80044466B1E9E42EEDA304601363B5C19F8C6
:1023080003301B07B6B2F4D531468BB2AB42F0D2DC
:102318007B5C19F8038018F00808DED0013401311D
:10232800A4B2F2E70026DFF808903446E1E700BFE0
:102338004AA80008F8B5846894F84230054653B9AD
:10234800AB689A8FDA87F8BD013A92B2A2872AB9A8
:1023580084F84220F4E7124E04F14200A28F831859
:1023680013F8013CF35C13F00803EDD183549AB2DF
:1023780010FA83F110F802C016F80CC01CF0080F10
:102388001F4603F10103F2D1BFB2002FD8D0A68FA8
:10239800731C9A1AF61B06F0C4FAA687D0E700BF8A
:1023A8004AA80008F7B51646027800232D2A0446E5
:1023B800019305D16FF015033360002003B0F0BD21
:1023C80006F0DAFA0B4F0546C3510A46204601A922
:1023D80003F000FCEB59222B02D16FF02103EBE74D
:1023E800002BE7D1019BA342E4D01B78002BE5D05A
:1023F800E0E700BF0C0000008368D3F860329B065A
:1024080003D50249406904F0EABB70470C8F000805
:10241800014904F0E4BB00BFF09800080A1E0DDC77
:102428000ED042238168D1F86012890608D5002AA7
:1024380004494069B8BF524204F0D1BB4123F1E7D7
:10244800704700BFC3A000080A1E0DDC0ED044234D
:102458008168D1F86012890608D5002A04494069C4
:10246800B8BF524204F0BBBB4323F1E7704700BF3B
:10247800C3A000082DE9F0410C1E064631DA64427B
:1024880024B24FF0FF35DFF86080A4B2AFB212E09B
:10249800B368DA8F03F1420C9B8F1146002071B9A3
:1024A800B5F1FF3F00D073B9891A09B2304604F07C
:1024B800FEFB013CA4B2002CEAD1BDE8F0818B42BE
:1024C80001D1012DF0D01CF801E018F80EE01EF043
:1024D800070F04D10028E7D1394489B2DFE701208A
:1024E800FAE70125CFE700BF4AA800082DE9F04721
:1024F8008568DFF86890044605F14200FEF734F875
:10250800002395F82C7086B29846A268558DED1B6D
:10251800B54209DB002E1FDD423360691049BDE872
:10252800F0471A4404F05BBB1D442A44423392F836
:1025380042A082F84280A26860691A44494604F0C1
:102548004EFBA3682B4483F842A0A3685B8DDB1B7A
:10255800F61A00272B46D8E7BDE8F087AD960008A5
:10256800D79A000808290A4617D8836893F82E10C6
:10257800914212D083F82E208368082AD3F860325B
:1025880005D0990609D50549406904F028BB9B0682
:1025980003D50349406904F022BB7047CAA000086C
:1025A800118F000838B50D4609780446FFF7DAFFA1
:1025B8006A78072A11D8A36893F82F1091420CD093
:1025C80083F82F20A368D3F860329B0605D560698D
:1025D8000249BDE8384004F002BB38BDD3A000086A
:1025E800F8B583689A8F0446002A51D0D98F0029FC
:1025F8004ED0413103F142050B441846A84206D398
:10260800014611F80169202E39D0A84239D286B284
:102618009DB2AB1B9BB2591C471CD21A01443846C9
:1026280006F07FF9A268938F711B13FA81F39387E1
:10263800A3689A8F1344002283F8422009B22046E7
:1026480004F035FBA368D3F860329A0603D5114924
:10265800606904F0C4FA3B460F4A0821204604F09A
:10266800F8FB2046FFF7C8FEA368D3F860329B0644
:102678000ED560690949BDE8F84004F0B0BA0846CB
:10268800BCE7014611F80169202EC0D00846BCE716
:10269800F8BD00BF168F0008D79A00081A8F0008E7
:1026A8002DE9F04104460D4617460AB1FFF7A4FE8E
:1026B800A368DA8FD3F86012423213444A071FD551
:1026C8001846FDF751FFDFF84480064696B9A3681F
:1026D8009A8FDA87A06804F08FFA20B107B115B194
:1026E8006069FFF795FE6942204609B2BDE8F041EE
:1026F80004F0DDBA6069414604F071FA013EE5E78D
:10270800034A0821204604F0A4FBE0E757A9000883
:10271800D79A000813B583688DF80710D3F860229C
:102728000446D00722D5D98F9A8F8A421ED0481CDA
:10273800D8870B449DF8072083F84220A368D3F874
:102748006012890710D5D3F8603260690B4913F01D
:10275800040F18BF2A2204F042FA204604F05EFA59
:1027680010B16069FFF754FE02B010BD01220DF1EF
:102778000701204604F07AFBF6E700BFC7A000086F
:1027880010B58368094A1B680446022104F061FBFE
:10279800A368D3F860329B0707D52046FFF7A6FE4B
:1027A8002046BDE8104004F05FBA10BDD79A000873
:1027B800014904F0BCBB00BFF09800082DE9F047C0
:1027C800054690460E46002965D0DFF8D0900024D3
:1027D800335D19F803301A071ED43046FDF7C4FEDE
:1027E800AB685A8D80B2001BA2EB0803984206EB37
:1027F800040A13D95146002711F8010B19F800C033
:102808001CF0080F02D00A282DD03B4608EB070021
:10281800824227D90137EFE70134D9E75346002729
:10282800B84214D013F8012B0A2A19D1686904F0A8
:10283800F6F851463A46284604F0A0FA6869FFF7C8
:10284800B7FF0134414628463C44FFF7FDFD68695F
:10285800311904F06CFB6869BDE8F047FFF7A8BFC1
:102868000137DDE71F46686904F0D9F83A46514652
:10287800284604F083FA3C44335D19F803301B07FB
:1028880007D46869FFF794FF41462846FFF7DCFD47
:10289800A3E70134F0E7BDE8F08700BF4AA80008C5
:1028A8002DE9F04F0E46002189B0044617460D4623
:1028B80003AA304601F10108FFF7CCFCB0B995B185
:1028C80027B13A460821204604F0C3FA1E4FDFF824
:1028D8007C90DFF87CA0002103AA304601F10108B2
:1028E800FFF7B8FC60B909B0BDE8F08F006810B117
:1028F800FDF73AFE80B2854238BF05464146D7E724
:1029080003688BB11A787AB1D0F804B04A46CDE999
:10291800005308213B46204604F09BFABBF1000F08
:1029280004D16069FFF744FF4146D5E75246204687
:102938003B46082104F08DFA6A1D92B2594620469A
:10294800FFF73CFFF0E700BFF5A00008DCA0000897
:10295800E3A00008F7B50F6805460E46A7B138464C
:10296800FDF702FE84B2094B00932846084A3B460D
:10297800082104F06EFAE21C716892B2284603B08E
:10298800BDE8F040FFF71ABF3C46ECE7F1A00008AD
:10299800D79E000810B507490446FDF7D3FD38B1A6
:1029A80005492046FDF7CEFDB0FA80F0400910BD7C
:1029B8000120FCE7E7A00008EAA0000810B583683A
:1029C800D3F860329B06044603D50649406904F0F3
:1029D800C1FAA36850225A85A36818221A850020D4
:1029E80010BD00BF1E8F000808B58369034A1B6825
:1029F800082103F0E9FF002008BD00BFF8A0000887
:102A08002DE9F3410F4A104C104EDFF8448008219D
:102A1800054603F0D9FF0023B44203F1010703D3AD
:102A2800002002B0BDE8F081226A0192A268126813
:102A380000929BB242460821284603F0C5FF2C3479
:102A48003B46E9E708A10008888E0008B48E000814
:102A580020A1000808B5024903F0C3FF002008BD03
:102A6800F19800087FB50F4E04460025A268E0687B
:102A78000DF10E0302F5A172012104F01BFBBDF854
:102A88000E00A36850B103F5A173009332462B469C
:102A98000821204603F098FF0135E7E783F8420153
:102AA80004B070BD31A1000810B5044603F0A9FFB9
:102AB800034A03460821204603F086FF002010BD84
:102AC800519C0008022907B50DD1536801930E4B9C
:102AD800009313680D4A012103F076FF6FF015008B
:102AE80003B05DF804FB8368094AD3F8603213F039
:102AF800020F4FF00801074B08BF1346064A03F0C0
:102B080063FF0020ECE700BF48A100083FA10008D0
:102B18003BA10008779A00085DA1000810B58368FA
:102B2800D3F860329A06044603D50749406904F091
:102B380011FAA368D3F860329B0603D5034960698C
:102B480004F008FA002010BD258F00082A8F00081D
:102B5800F0B5012985B004460CD053680193604B49
:102B6800009313685F4A012103F02EFF6FF01500F0
:102B780005B0F0BD8368D3F86032990603D55A4989
:102B8800406904F0E7F96FF0F9012046FFF746FCC9
:102B9800FA212046FFF758FCA06800254FF4807200
:102BA800294600F5A1708DF80B5005F0D4FE4F4969
:102BB800606904F0CFF9606903F031FF4FF47A7669
:102BC8006068036801221F690DF10B0103ABB84768
:102BD800039BF3B9013E4FF47A70B6B205F0F7F8EB
:102BE800002EEDD1A368D3F860329B0603D5404987
:102BF800606904F0AFF9A36850225A85A3681822C7
:102C08001A8520463B4A032103F0DEFE6FF00700D9
:102C1800AEE79DF80B20A3681B2A53D093F8421106
:102C28001B29CDD1522A4DD15A19002382F842319D
:102C3800A66896F843215B2A2BD106F24310022599
:102C480010F8011F2A463B2905F10105ADB223D131
:102C5800FF2AC7D002F5A17216FA82F1002211F8F4
:102C6800010F18BB86F84201FA2AA16828BFFA2288
:102C78004A85FA2BA26828BFFA231385A368D3F8DC
:102C880060329A0603D51A49606904F063F9002096
:102C98006EE786F84231A5E703EB8303303901EB91
:102CA8004301B5F5807F8BB2CAD19BE7013502EBB2
:102CB8008202ADB2303800EB4200B5F5807F82B2B7
:102CC800CDD18FE72B440135ADB2092D83F84221D0
:102CD8007FF676AFA368002283F8422182E700BF1F
:102CE80048A100083FA10008308F0008A8A10008EB
:102CF800348F00086EA100082DE9F04F074689B00F
:102D08001546894621B1104604F079FA00285BD1AE
:102D1800032455E05C463CE029460AF5A17005F01D
:102D280085FD0646002854D0FDF71EFC82B2601CC3
:102D380001323146304405F0F4FD2246594630460A
:102D480005F0E1FD4FF020033355BAF84030013368
:102D58001C44AAF8404008F10108002401994B1CC2
:102D680003AA48460193FFF775FA0646E8B13168A9
:102D78000022284604F0C9FB0028EFD1D6F800B09D
:102D8800D7F808A0BBF1000FC4D05846FDF7ECFBFC
:102D980084B2BAF840302344FF2BBDDD0E4A2B46DF
:102DA8000321384604F055F80124B8F1000F07D084
:102DB800B8682A4600F1400100F5A17003F08FFEC3
:102DC800204609B0BDE8F08F4FF0000841460224C4
:102DD800C5E70224E9E700BF70A6000808B5034B61
:102DE8001B689847BDE8084000F036B8A4000020EA
:102DF80030BFFFF7FDBF00BF124B134A2DE9F0416A
:102E0800D518DFF84880013DB5FBF3F55D43104B5D
:102E180008EB0304013CB4FBF3F403FB04540E1B5E
:102E280007460C49304605F06EFD701942460021F0
:102E3800083E05F090FDC7F8A86004F10800BDE859
:102E4800F08100BF01000000000000000800000041
:102E580004000000F48E0008044B99685869884201
:102E680003D003494FF080520A607047C80A002017
:102E780004ED00E070B5264B15469A6A12F0100F63
:102E88009A6A14BF1124102412F0080F9A6A18BF06
:102E98001224920706460AD5586B9A6A140634D546
:102EA80019B19A6A22F080029A62132401E06FF045
:102EB8001500174B9A6A12F0010F9A6A18BF14246A
:102EC80012F0200F9A6A18BF1524D20602D49B6A02
:102ED8009B070AD50E4B5B68190506D5314600F0ED
:102EE80027FA10B180F309880224094B9A6A9206DE
:102EF80042BF5A6A22F400525A629A6A42F0FF02AA
:102F08009A6200232B70204670BD6FF01500CCE745
:102F180000ED00E0134B9A6A12F0007F9A6A14BF22
:102F28001E201D2012F0807F9A6A18BF1F2012F4FD
:102F3800002F9A6A18BF212012F4802F9A6A18BFAE
:102F4800222012F4003F9A6A18BF232012F4803F0F
:102F58009A6A6FEA02426FEA12429A6218BF242004
:102F6800704700BF00ED00E010B5194B0246986AA3
:102F78009C6A10F4805F14BF1720162014F4006FA9
:102F88009C6A18BF1820A40509D5986B986A000494
:102F980004D51AB19A6A22F400429A6219200C4B9D
:102FA8009A6A12F4806F9A6A18BF1A20D2050CD454
:102FB8009B6A13F4005F18BF1C20054A936A43F408
:102FC8007F43936200230B7010BD1B20F5E700BF01
:102FD80000ED00E0F0B5484B5B688BB00446C3F3E6
:102FE8000803002585F31188BFF36F8F02F07F4037
:102FF800B0F17F4F11D102F00C0008280DD0100756
:103008004CBF0C4601250022033B8DF80720032BFB
:1030180005D8DFE803F0246367602C46F3E7002354
:103028009DF80720CAB902AE04F12007206861683C
:10303800324603C20834BC421646F7D1099A002D1D
:1030480054D0C2F3080121B96FEA52226FEA422232
:10305800099202A9184604F015F90BB0F0BD264BE9
:10306800DA6A9107DBD4DA6A002AD8DBDA6A520016
:10307800D5D55A69A16942F480725A61BFF34F8F5E
:10308800BFF36F8F5A6931F8021C22F480725A61BB
:10309800BFF34F8FBFF36F8F4DF6027291420AD084
:1030A8009A6AD2B24AB10DF1070201212046FFF710
:1030B800E1FE0346B4E72368B2E79A6A12F47F4F49
:1030C80005D00DF107010120FFF74EFFF1E79B6ADC
:1030D800B3F5803FA3D3FFF71DFFEAE70DF1070221
:1030E8000021E3E70DF107010020EDE722F4FF726C
:1030F80022F00102ACE700BF00ED00E0024A53698C
:1031080043F010035361704700ED00E0EFF30880CF
:10311800EFF3098101B57246FFF75CFF01BD00BFFF
:10312800102080F311880B484FF0AA014FF4046275
:1031380004F073FE07484FF40461401880F30988CF
:10314800EFF314800221084380F31488BFF36F8FD4
:1031580000F0AEF8C02F0020BFF34F8F0549064B93
:10316800CA6802F4E0621343CB60BFF34F8F00BF1D
:10317800FDE700BF00ED00E00400FA05084B9B687E
:1031880083420BD1EFF3058343B1064B5A6842F0F3
:1031980080525A605A6A22F400425A6204F073BF9D
:1031A800C80A002000ED00E00A4A93686FF00A019F
:1031B800C3F8B0100849C3F8AC004B6843F080531B
:1031C8004B60002383F31188BFF36F8F9368D3F8A4
:1031D800B0007047C80A002000ED00E016498A6870
:1031E8004FF030001044EFF3098C80E8F01F1020F6
:1031F80080F31288BFF36F8F104F4FF000664A6953
:103208008A603E604FF0A804141920680C4C2060B6
:10321800D2F8AC000023C2F8AC3080F3118804B5B2
:10322800104600F0F9F8BDE8044002F1300090E8DB
:10323800F01F8CF309887047C80A002004ED00E0ED
:10324800AC0900201EF0040F0CBFEFF30880EFF369
:103258000980816911F8021C0229FFD001B504F028
:1032680013F801BD40B2002807DB044A41090123D5
:1032780000F01F00834042F82130704700E100E071
:1032880040B20028A8BF00F1604001F10101B8BFB9
:10329800064B4FEA0111ACBF00F5614000F00F008A
:1032A800C9B2B4BF195480F80013704714ED00E098
:1032B8000F4A08B50F4B22F07F029A60BFF34F8F79
:1032C800BFF36F8FD3F8882022F47002C3F88820E8
:1032D800EFF3148323F0040383F31488BFF36F8F91
:1032E80001F030F902F000F900F06AF801F080F915
:1032F8000000000800ED00E042F8203C009B42F886
:103308001C3C0A49019B42F8183C029B42F8143CB9
:1033180021F001014FF0807342F8043C42F8081C88
:103328000023203A0265C0F8AC30704771090008E4
:103338000A4A0346906878B113F1160FD0F898003E
:1033480005D0A0F140029A4205D8834203D28142B7
:1033580028BF002070470020704700BFC80A00201F
:1033680008B514460A4A0B4B9060D0F8A8201A609A
:103378000D4600F051F8204685F30988002163B610
:1033880081F31188BFF36F8F00220023FDF7ECFA59
:10339800C80A0020AC090020014910220A607047C1
:1033A80010ED00E072B6404080F31188BFF36F8FD4
:1033B800BFF34F8F30BF62B6BFF36F8F704700BF48
:1033C800044800231021C2180133662B82F8001329
:1033D800F9D1704700E100E001B5EFF30580A0F1F5
:1033E80010004FEAC0000449014409C99847BDE8E4
:1033F8000140024908470000248B0008612E00089C
:10340800024B034A0348012100F078B8000002206B
:103418000000002034940008D0F89820054B403A6A
:103428001A60054A4021C3E901121846012100F03B
:103438006FB800BFB009002000000B15084AC2F899
:1034480098000B6823F01F03034343F01003C2F8EE
:103458009C308B6843F00103C2F8A030704700BF6E
:1034680000ED00E02DE9F043DFF8608085B00E46FE
:103478001F4604464FF00009B14523DA6068D8B109
:103488003FB1411E08421BD11F2819D92368194290
:1034980016D12368019303F0FFFEA3680343039347
:1034A800D8F89050C5F30725D0B2013DA84207D8F7
:1034B80001A9FFF7C3FF421C09F101090C34DBE73E
:1034C8006FF01502104605B0BDE8F08300ED00E08E
:1034D800044B0522C3F89420BFF34F8FBFF36F8FBF
:1034E800704700BF00ED00E0BFF35F8F024B002282
:1034F800C3F89420704700BF00ED00E010B5034CFE
:1035080001232278FFF7AEFF207010BD270B0020A3
:1035180008B50B4A00231278FFF7A4FF10F1160F25
:1035280007D0084A0021D2F89030C3F30723984205
:1035380000DB08BDC2F89800C2F8A0100130F2E71D
:10354800270B002000ED00E02DE9FF414B4B4C4DCF
:10355800D3F890302C68C3F307239C4200F28A808A
:10356800FFF7C2FF00200C2684420FD1454D464F7D
:103578002C706846FDF75AFADFF8008106460024E9
:10358800A6420AD1FFF7A4FF00201CE0696806FBE9
:103598000011FFF753FF0130E6E7009800EB041134
:1035A8004FEA041CCB683B40B3F5000F50D00DD850
:1035B800B3F5001F36D0B3F5800F3ED0B3F5801FAA
:1035C80013D06FF0150004B0BDE8F081B3F1807F2F
:1035D80047D0B3F1007FF4D150F80C3088684A68BE
:1035E80003F05AFE40F4802009E050F80C30886857
:1035F8004A6803F051FE40F0885040F43020CDE98D
:1036080001230390D8F890302878C3F30723013BAF
:103618009842D6D801A9FFF711FF2B7801332B70F8
:103628000134ADE750F80C3088684A6803F034FE7E
:1036380040F0885040F40020E1E750F80C308868EA
:103648004A6803F029FE40F0E06040F40030D6E715
:1036580050F80C3088684A6803F01EFE40F082700B
:10366800CDE750F80C3088684A6803F015FE40F042
:103678008870C4E74FF0FF30A5E700BF00ED00E019
:1036880040940008270B00200000F0FF08B5024B0B
:103698001B689847002008BDBC090020034B044A5A
:1036A8001860937843F0020393707047BC090020B8
:1036B800A8000020F0B587B007460E461446002142
:1036C800102268461D4605F046F902238DF802309F
:1036D8002A46054B019321466846CDE9047602F057
:1036E800DDFA07B0F0BD00BFC172000808B5064991
:1036F800064821F00701C1F1005202F5003202F03C
:10370800D1FE002008BD00BF07840020C0090020AA
:103718000B0706D5034B1B5C03F00303012B08BF03
:10372800203070474AA800082DE9F0410F4E104F8D
:10373800054600244FF001082B7853FA84F01F281F
:103748000DDC726908FA00F333EA020207D17361EB
:1037580057F830301BB107EBC002516898476A78B8
:103768000134E3B29A42E7D2BDE8F0810004014097
:10377800CC090020044B184400230133994200F877
:10378800012BFADC704700BF1801002010B4064B6B
:10379800064902460C6818560123934023430B60E0
:1037A80010BCFFF75FBD00BF1801002000040140F6
:1037B8001F2806DC034901220B68824023EA020322
:1037C8000B6070470004014003292AD8DFE801F0A4
:1037D800020E141F134B01229968824021EA02014C
:1037E8009960D96821EA0202DA6070470D4B01221C
:1037F800996882401143F3E70A4B0122D968824055
:103808001143D960996821EA02029A60704701233E
:1038180003FA00F0034B9A6802439A60DA6810438F
:10382800D86070470004014030B50A4B53F8304067
:103838008C4204D103EBC0056D68954205D034B9BC
:1038480043F8301003EBC0035A60002030BD6FF01E
:103858000F00FBE7CC090020034B002243F830207F
:1038680003EBC0035A607047CC09002010B5214B08
:1038780018680B68082B144616D00B2B0BD89BB175
:10388800013B0A2B10D8DFE803F0163331162E1649
:10389800170F1A252500582B0ED008D84C2B0BD003
:1038A800502B09D0482B07D06FF0850006E05C2B21
:1038B80002D0602BF7E700202060002010BD00F048
:1038C800BDF80623B0FBF3F0552358430723B0FB9C
:1038D800F3F0F1E700F0B2F80623B0FBF3F055235C
:1038E80058434008E8E74FF4FA40E5E70248E3E7C1
:1038F8000248E1E70401002000366E01006CDC029A
:10390800F8B54A4C4A4F00F0B7F800F01DFDA3681F
:10391800484AC3F303131578D35C05F01F0503F079
:103928001F0320FA03F647FA05F5AE4202D22846ED
:1039380000F040FD236823F480232360236843F4C8
:103948008033236023689A03FCD5D4F8943043F07D
:103958000103C4F89430D4F894309B07FBD5D4F80D
:10396800983043F00103C4F89830D4F89830980799
:10397800FBD5A36803F00C030C2B18D12368590559
:1039880006D4236843F48073236023685A05FCD562
:10399800A36823F0030343F00103A360A36803F0C3
:1039A8000C03042BFAD1A36823F0F003A360236867
:1039B80023F080732360E36823F0605323F400331B
:1039C80043F06053E360E36843F48033E360E36803
:1039D80023F4C003E360E36843F48013E36000F07A
:1039E80031F8236843F08073236023689B01FCD57A
:1039F800A36823F0F003A360A36843F00303A36064
:103A0800A36803F00C030C2BFAD1AE4202D328466C
:103A180000F0D0FC084B1F60A36823F4E063A360A8
:103A2800A36823F46053A3600020F8BD001002408F
:103A380080FE210A9DA70008040100200048704765
:103A480000366E010A4AD2F8803023F48073C2F837
:103A5800803002F5D032074BD1680B4043F4AA43BB
:103A680043F05303D360D36843F08073D360704747
:103A7800007000400C80FFF9064B9A6D42F08052AE
:103A88009A659B6D82B003F080530193019B02B04D
:103A9800704700BF0010024008B5074804F0A6F9B7
:103AA80038B10648FFF7FAFD0448FCF73FFF00204D
:103AB80008BD6FF01200FBE7FC8A0008C93A00084D
:103AC8000A2838B5074D044604D1AB680D215B6858
:103AD80028469847AB6803485B68E1B29847204698
:103AE80038BD00BFFC8A000838B503690446586031
:103AF800084D284604F07AF940B16168AB680C318A
:103B08001B682846984700EAE07038BD6FF012003D
:103B1800FBE700BF348A0008F7B51746B7F5001F62
:103B2800466802690C461D4628D101F00303043398
:103B38009B000F229A4042EA910202F003030233EB
:103B4800354951F82310130C93FAA3F3B3FA83F30E
:103B580001EA124203F01F0322FA03F3B2689A4201
:103B680009D12046FFF724FE2046FFF775FE002105
:103B78002046FFF729FE002003B0F0BDB7F5800FFF
:103B880044D026492046FFF74FFE002841D1244A59
:103B9800B66892E803006B4683E803002148826810
:103BA800194612689047D8B904F0030304339B0000
:103BB8000F21994041EA940101F003039B0003F1AE
:103BC800804303F580330A0C986892FAA2F2B2FA9D
:103BD80082F202F01F0220EA114196400E439E60D5
:103BE800B5F1806F0ED0B5F1C06F0DD005F17E43F1
:103BF8005942594149002046FFF7E6FD2046FFF7A4
:103C0800C5FDB8E70121F6E70321F4E76FF0850069
:103C1800B2E76FF00F00AFE7000001408F780008AF
:103C2800F48E0008348A00082DE9F0471E4F044638
:103C380000EBC1060025B44201D1002014E0206841
:103C4800C30600F01F0911D4656845F02005C0F3CC
:103C5800471AC0F343200A2823D857F82080B8F120
:103C6800000F0DD16FF01200BDE8F087B9F1100F09
:103C780004D0B9F1110FEAD16568E8E73025E6E725
:103C8800404604F0B3F80028ECD04B462A460AF028
:103C98000F01404603F00EFE002804F10804CADABA
:103CA800E2E76FF01500DFE710950008012912D050
:103CB800022907D089B90068094BC01A18BF01202A
:103CC800000370470068064B984214BF4FF44050F9
:103CD8004FF400507047002070474FF40050704771
:103CE800008000404268116801F1080353E8003F72
:103CF80043F0010301F1080C4CE800300028F3D12F
:103D0800136810498B420FD0A1F574418B420BD038
:103D180001F580618B4207D001F580618B4203D0A9
:103D280001F580618B4203D1596841F04001596027
:103D3800126852E8003F43F4807342E800310029DA
:103D4800F7D17047003801404268116801F1080353
:103D580053E8003F23F0010301F1080C4CE8003060
:103D68000028F3D1136810498B420FD0A1F5744194
:103D78008B420BD001F580618B4207D001F5806141
:103D88008B4203D001F580618B4203D1596821F041
:103D980040015960126852E8003F23F4807342E8FA
:103DA80000310029F7D170470038014070B51D4631
:103DB800094B002633F812203346FCF759FA09025A
:103DC80041EA10616C08000220182A46334641F186
:103DD8000001FCF74DFA70BD949600082DE9F341F7
:103DE8000369466818688368DB680C46F168C3B1E4
:103DF80001AA9847002814DB3368244A934235D136
:103E0800019FDFF88C8000252346AAB2384600219E
:103E1800FFF7CCFFA0F54070404505D901350C2DC2
:103E2800F2D102B0BDE8F081184AD36A23F00F033B
:103E38002B43D3623668002CF3D0164B33F8152089
:103E4800002319463846FCF713FA090241EA1061C3
:103E580063080002C01822464FF0000341F1000138
:103E6800FCF706FAC0F31300F060DAE71A6822F4E8
:103E780000421A603268019B002CD2D003EB540335
:103E8800B3FBF4F39BB2D360CBE700BF00800040E4
:103E9800FFFC0F00949600082DE9F8430A7903699E
:103EA80045685F68012A06460C465CD0931ED3F12C
:103EB800000848EB03084FEA882861792846FFF78D
:103EC800F5FE94F80690B9F1020F03464ED0B9F109
:103ED800040F4FD0002A57D0033A012A4CD94FF487
:103EE8008050B3F5805F51D0B3F5405F50D0002BC0
:103EF8000CBF0123032399423ED1414603F03AFD0A
:103F0800814539D1E379CBB1012B43D12B68234AC1
:103F1800934213D0A2F5744293420FD002F5806207
:103F280093420BD002F58062934207D002F580627B
:103F3800934203D002F5405293421DD12A68136878
:103F480023F0010313602146304603F09EFE2A68E1
:103F5800136843F00103136094E8030087E8030043
:103F68000020BDE8F8834FF4C068A6E73AB94FF0DF
:103F78008050B6E7002AB2D06FF08500F1E7033A27
:103F8800012AF9D90020ACE71046AAE70023B2E7D6
:103F98000223B0E7032BB9D0EEE700BF0038014099
:103FA800F7B50469466805465648206003F01EFFC9
:103FB80018B96FF0120003B0F0BD2068F16883688B
:103FC8001B6898470028F6DB306A01AA002103F035
:103FD80086FC0028EFDB019B002219791868FFF79F
:103FE80023FE0028E7DB6C682B6922685F6813688A
:103FF80023F001031360606803F0F8FE0028D8D0AE
:10400800D4E901018368DB6803B19847226852E864
:10401800003F43F00C0342E800310029F7D139464C
:10402800284603F032FE237D23B12268936843F0CB
:1040380008039360637D23B12268536843F4004307
:104048005360A37D23B12268536843F480335360DF
:10405800E37D23B12268536843F400335360227E22
:104068002368002A33D0284A934213D0A2F5744219
:1040780093420FD002F5806293420BD002F5806222
:10408800934207D002F58062934203D002F5405272
:10409800934234D16B681A68936843F48043936001
:1040A8002268617E136823F0787343EA41531360F2
:1040B8002268A17E136823F4F81343EA01431360CE
:1040C800E37E23B12268936843F400439360237F1F
:1040D80023B12268136843F0005313602268136801
:1040E80043F0010313602368DA699102FCD5DA69A9
:1040F8005202FCD52846736A984700205BE76FF0A8
:10410800150058E7348A00080038014010B54FF010
:10411800E0230F499C691A6908689B690D4902F4F4
:10412800803234B993B903464AB90A681044C01AB0
:1041380010BD002B08BF03460AB9A342F5D90A6887
:1041480002440A604FF0E0221269EEE70446F3E702
:10415800C00A0020BC0A00200A4B102283F8232042
:10416800094B44F268221A60084B002018604FF08F
:10417800E02344F267225A6198611A6942F0070203
:104188001A61704700ED00E0C00A0020BC0A002058
:1041980010B5FFF7BBFF104B1049D3E90042086880
:1041A800001942F10002C3E900020D4A00230B6026
:1041B800D2E9004144F26823001BB0FBF3F043430B
:1041C8001B1941F10001C2E9003101F063FABDE8B1
:1041D8001040FEF741BE00BFF8030020BC0A0020D3
:1041E800F00300202DE9F041DFF8E08099B1421C8E
:1041F8000BD14FF0E022136923F0010313614FF054
:104208007F43C8F80030BDE8F081D8F80060012885
:1042180007DC00270BE0431CD8F80060F7D140F218
:10422800D93040F2DA339842A8BF1846471E4FF0FB
:104238001003EFF3118583F31288BFF36F8FFFF735
:1042480065FF234C4FF0E0239969D4E900238018D7
:1042580043F10003C4E900031E4B00221A601E4B01
:104268001A68831A2ED444F2682C0CFB073303F522
:1042780084436733B3FBFCF7131A0CFB073340F294
:104288002642934238BF1346144A934228BF134626
:104298004FF0E022C8F80030013B906953610023D9
:1042A80093618142A1EB0003D4E9001238BF9B1946
:1042B8005B1842F10002C4E9003285F31188BFF3AC
:1042C8006F8FA0E740F22643E2E700BFC00A002054
:1042D800F8030020BC0A0020F00300202882FF0019
:1042E80038B54FF01003EFF3118583F31288BFF34D
:1042F8006F8F084B1C68084B1B68E41AFFF706FF12
:1043080085F31188BFF36F8F44F268232044B0FB14
:10431800F3F038BDF8030020F003002038B54FF063
:104328001003EFF3118583F31288BFF36F8F054BEA
:104338001C68FFF7EBFE85F31188BFF36F8F2044ED
:1043480038BD00BFF8030020174B9A6802F00C0232
:10435800042A23D09A6802F00C02082A20D09A680E
:1043680002F00C020C2A1DD1D968DA68D868DB681B
:1043780001F00301C3F341630329C2F30312C0F33D
:10438800062003F101030CBF084909495B0001320B
:10439800B1FBF2F25043B0FBF3F0704704487047AA
:1043A80002487047002070470010024000366E0136
:1043B8000024F400254B421E9A4245D8244B1B6822
:1043C80003F4C063B3F5007F2BD1224B98422DD85C
:1043D800214B98422CD8214B98422BD8204B9842FD
:1043E8002AD8204B984229D81F4B984228D81F4BCF
:1043F800984227D81E4B984294BF002001201D4A9E
:10440800136823F00F0303431360136803F00F03CB
:1044180098421CBF136803F00F03C01A18BF01208D
:104428007047154B98420DD8144BE4E70820E6E78F
:104438000720E4E70620E2E70520E0E70420DEE7BE
:104448000320DCE70220DAE7012070477FFE210A1B
:104458000070004000688909003B5808000E2707D3
:1044680000E1F50500B4C40400879303005A620212
:10447800002D3101002002400024F40000127A00CF
:10448800034A044B02609B1A1420B3FBF0F07047F8
:10449800348A0008248B000838B54FF01003EFF376
:1044A800118583F31288BFF36F8F064B9C6803F066
:1044B800B1FC85F31188BFF36F8F2046BDE8384003
:1044C800FEF75CBEC80A0020104B70B553F82040B8
:1044D800013053F82060A64200D870BDD4E90035F9
:1044E80095B153B12846984738B10028B8BF404223
:1044F800EB68FF28A8BFFF201870EA68537843F0DC
:10450800010353700834E6E79847FBE73C96000838
:1045180008B50A4B012203201A70FFF7D5FF01F0F6
:104528008BFA0420FFF7D0FF00F0FCF9FCF748F9FC
:10453800034A137B23F00103137308BD280B0020E3
:10454800B804002008B50348034A0021121A03F0F2
:1045580064FC08BDA80100202C0B002070B51D4E7E
:104568001D4D1E4986B0B82303FB00661C4B0593FE
:1045780001220F23CDE903320023CDE901331423AF
:1045880003FB005504464FF4C070164B00954FF4DA
:10459800A07200FB0411304600F028F9737B124A20
:1045A800EE6023F0040373734FF4046304FB0333D6
:1045B80013446B600D4B2C74BFF35B8F53E8001FE3
:1045C800013143E80012002AF8D1BFF35B8F06B02F
:1045D80070BD00BF00040020C80A00200038002079
:1045E800ADA7000819810008C02F0020C40A0020C8
:1045F80080B50020B4B0FFF767FF2D4B83F3088820
:104608002C4D2D4E6B692D4F43F400736B610024C4
:10461800F02385F82230EC772C766C76AC7685F82A
:1046280020406B6A43F4E0236B62FEF767FDFEF7F8
:10463800B3FE4FF0FF33AB62EB6206ADFEF784FFCB
:10464800FEF7DEFE40F201132846ADF82430CDE92E
:104658002C4401F0D3F9B56003F0C7FB0120FFF744
:1046680033FF0220164DFFF72FFF00F007FC154B14
:1046780075610593012314490094CDE903434FF470
:1046880080623B46CDE90144284600F0AFF86A7BDA
:10469800064622F0040228466A7303F020FC2046EE
:1046A800FFF75CFF3A4631462846FEF759FE00BF41
:1046B8000038002000ED00E0C80A00201945000875
:1046C800B8040020B2A7000880390020F8B50546D4
:1046D8000E464FF01003EFF3118783F31288BFF3F0
:1046E8006F8F064B1C6A24B987F31188BFF36F8F4D
:1046F800F8BD20463146A847646FF4E7C80A002091
:104708004FF01003EFF3118183F31288BFF36F8F1B
:10471800094A136A834207D15B6F136281F31188D8
:10472800BFF36F8F70471346002BF7D05A6F824242
:10473800F9D1426F5A67F1E7C80A002010B504465C
:1047480008B9054B9C681F2204F1780004F052F860
:10475800002084F8970010BDC80A00202DE9F74F03
:104768000C46D1B3CAB3477BDFF87480561E08469F
:104778006FB34FF000094D464FF0010A0AFA09FBE2
:1047880017EA0B0F1DD0D8F80410721B8A4228BFF5
:104798000A46D8F80010019204F0B5F8019A37EAF1
:1047A8000B07154404EB050011D0A6EB050BBBF174
:1047B800010F28BF4FF0010B0A495A4604F0A3F82D
:1047C8005D4409F1010908F108086019D6E70023DA
:1047D8000370204603B0BDE8F08F0348FAE700BF36
:1047E80054960008B7A70008F19800082DE9F04F83
:1047F80085B0984600F15803C0E916330732129B7A
:10480800037322F0070A0423002601F1400B4373C7
:104818000AF14005119B837304465246C0E90666B7
:104828000F468660C6730D445846AA21DDF84C90A1
:1048380004F091F829462046FEF7DEFA0730109B6F
:1048480020F00700C4F8A000C4E926BA02930F9B21
:1048580001932D1A0E9B00932A464346394620465B
:10486800FEF74AFD0E9BA3660F9BE366109B6665E9
:10487800C4F8648023674FF01002EFF3118382F3CA
:104888001288BFF36F8F104F3A6A62673C6283F3F6
:104898001188BFF36F8FB9F1000F11D01F2249465D
:1048A80004F1780003F0A6FF84F89760BB680BB1A9
:1048B800D3F8A430C4F8A430284605B0BDE8F08F7A
:1048C80084F87890F2E700BFC80A0020F0B587B0F6
:1048D80000250595109D04950F9D03950E9D029545
:1048E800DDE912760D9D01950C9D00950446FFF7B4
:1048F8007DFFB6F1FF3F08BFB7F1FF3F05D056EA8D
:10490800070305D1204600F06BFA204607B0F0BD3A
:1049180003493A46334604F1180000F045FEF4E72F
:10492800A57F000870B5224C224D86B02646AE42BF
:1049380004F130040AD300F071FA1D4C1E4EAC424B
:1049480020D306B0BDE8704000F07CBA54F80C3CA7
:10495800059354F8103C049354F8143C039354F80A
:10496800183C029354F81C3C019354F8203C0093E3
:1049780054E90A2354E90C01FFF738FF54F8303C96
:104988005E65D3E7D4E90A23B3F1FF3F08BFB2F16C
:10499800FF3F05D052EA0301206803D100F020FA56
:1049A8003034CCE73146183000F0FEFDF8E700BFA0
:1049B800588E0008888E0008A57F000800487047B8
:1049C80000630503C3897F2B12D80A4B1B6863B1A8
:1049D800094B90F90E201B689A4209DB437BDB06E2
:1049E80006D1064BC31A18BF012303F00100704714
:1049F8000023FAE7F40A0020F00A0020000400204F
:104A0800044BC01A044BC0105843044B01221A54DB
:104A1800704700BF70050020ABAAAAAA290B002086
:104A280070B50E4B0E4C1E7C06EB460304EBC3041C
:104A38000546204603F05BFC0A4B002228469A559F
:104A4800FFF7C0FF48B1084B08491A68013A2046E9
:104A5800D317BDE8704000F0A7BD70BDC80A00209C
:104A680070050020290B0020F40A0020094A0008DC
:104A780038B50D4D2B4653F8184F9C4200D004B959
:104A8800EC68AB6838B95A7BD20604D1A26912B96E
:104A9800DA897F2A05D89C4202D02046FFF7C0FF5A
:104AA80023466B6138BD00BFC80A002070B590F975
:104AB8000D20437B002A014604DA03F07F03437389
:104AC80003F0CAF94B7B154A63F07F0310464B731A
:104AD80050F8183FD469834208BF002323B9C1E9BD
:104AE80000042160D1610CE091F90E5093F90E6039
:104AF800B5420ED0AE420CDD5868C1E90030016005
:104B080059609068431A5842BDE870405841FFF711
:104B1800AFBF9C42E3D01B68E0E700BFC80A002093
:104B280070B490F90D30427B002B29DBD30627D1D6
:104B380083692BBB134962F07F0242730A4652F81D
:104B4800184F944218BF2346CC6923B9C0E9002402
:104B58002060C8610CE090F90E5093F90E60B542E0
:104B68000AD0AE4208DD5A68C0E9003210605860C9
:104B780070BC0020FFF77CBFA342E7D01B68E4E7C6
:104B880070BC7047C80A002008B590F90D20437B17
:104B9800002A014604DA03F07F03437303F05CF94B
:104BA800044B9868431A58425841BDE80840FFF73B
:104BB8005FBF00BFC80A002070B515461C460646F0
:104BC80003F065F9B4F1FF3F08BFB5F1FF3F08D026
:104BD8002A46234606F118000249BDE8704000F055
:104BE800E3BC70BDA57F00082DE9F041002A437B96
:104BF8000E460CBF10210821194204460AD10B4366
:104C0800DD0903F09F0211D14273082914D0012055
:104C1800FFF72EFF1E4B9B68A34232D1EFF30583AB
:104C28007BBB3046BDE8F041FEF7BEBA03F01F0378
:104C3800437303F011F9E8E7A36813B1204603F0C2
:104C480013F904F1180003F052FB04F158074FF070
:104C58000008A56DBD4200D035B90120FFF708FF57
:104C68002046FFF74DFDD5E7284603F0FDF805F18E
:104C7800180003F03CFBC5F8B0802846FFF750FF4A
:104C8800E7E786F31188BFF36F8FBDE8F08100BFB7
:104C9800C80A002038B54FF01003EFF3118583F3ED
:104CA8001288BFF36F8F104B104A9C681068A0429F
:104CB80006D1FFF7B5FE85F31188BFF36F8F38BDB6
:104CC80000211B7C11600A4AD35C002BF3D02046DC
:104CD800FFF778FE0028EED0637BDB0602D1204682
:104CE800FFF7E4FE2046E4E7C80A0020EC0A0020AB
:104CF800290B002070B50C480C4D86682E600C46B8
:104D08001146DDE904234FF01006EFF3118586F311
:104D18001288BFF36F8F8068FFF74EFF2046BDE80B
:104D28007040FEF741BA00BFC80A0020EC0A002014
:104D3800F8B504464FF01003EFF3118683F3128899
:104D4800BFF36F8F437BDA0649B219D18569BDB9C4
:104D580003F07F03437303F07FF8437B164A8173A4
:104D680063F07F034373134653F8180F984218BF34
:104D78000546D0695DB9C4E900300460D46111E02A
:104D8800A173002086F31188BFF36F8FF8BD95F9E2
:104D98000E70B9420BD08F4209DD6B68C4E900532D
:104DA8001C606C600120FFF763FE0120EAE7A8425F
:104DB800E1D02D68DEE700BFC80A002049B9EFF34B
:104DC800058030B9054B5A699B689A4201D0FEF7B5
:104DD800EBB981F31188BFF36F8F7047C80A0020C1
:104DE80010B54FF01002EFF3118482F31288BFF36D
:104DF8006F8F427B510704D484F31188BFF36F8F00
:104E080010BD22F004024273FFF78AFE21460248D1
:104E1800BDE81040FFF7D2BF2A0B00204FF0100367
:104E2800EFF3118183F31288BFF36F8F044B9A68F5
:104E3800D37B013BD37381F31188BFF36F8F704726
:104E4800C80A002010B54FF01003EFF3118483F364
:104E58001288BFF36F8F084B9A68D37B0133D373E3
:104E68000020FFF705FE84F31188BFF36F8FBDE8BC
:104E7800104003F0EEB800BFC80A0020024B03F14F
:104E88001802C3E906227047C80A0020F8B54FF097
:104E98001003EFF3118583F31288BFF36F8F19495D
:104EA8008868437B03F07F03437302F0D5FF8B6868
:104EB8005A7B084662F07F025A7350F8182FCC6963
:104EC800824208BF002222B9C3E900042360CB61F3
:104ED8000CE093F90E6092F90E70BE420ED0B74204
:104EE8000CDD5168C3E900210B6053600120FFF716
:104EF800BFFD2846BDE8F840FEF756B9A242E3D008
:104F08001268E0E7C80A002050EA01032DE9F041E1
:104F180005460E4603D1FFF7B9FF00202CE0831C9D
:104F280071F1FF332ADB03F0F8F92C184FF0100366
:104F3800EFF3118883F31288BFF36F8F114F124B71
:104F4800B8681860FFF720FEB86810492A4633464B
:104F5800183000F029FBBA68537B43F010035373F1
:104F68004046FEF721F903F0D8F9201A63EB030352
:104F7800012873F10003D0DBBDE8F0816FF0010474
:104F8800241AD3E7C80A0020EC0A0020A57F0008ED
:104F9800B1F1FF3F08BFB0F1FF3F08B506D10A4B9A
:104FA800986802F0ACFF4FF0FF3008BDFFF7ACFF88
:104FB800C11709304FF00A024FF0000341F1000118
:104FC800FBF756F9F1E700BFC80A0020014B9868C3
:104FD800704700BFC80A0020D3B5DDE90667089C02
:104FE800CDE90067FFF786FE1CB1034B9B685B6940
:104FF800236002B0D0BD00BFC80A002038B583685E
:10500800044673B31A4A926893422DD1C368012BA0
:1050180003D9013BC360002038BD4FF01003EFF304
:10502800118583F31288BFF36F8F0169806803F0DD
:105038007BF8204602F0CDFFA06060B190F90E2009
:1050480022610022C0F8B02002F049FF0948294631
:10505800FFF7B4FEDFE7E06085F31188BFF36F8FD9
:10506800D9E76FF01500D7E74FF0FF30D4E700BF5E
:10507800C80A00202A0B00202DE9F34104461746F0
:105088001E464FF01003EFF3118883F31288BFF325
:105098006F8FC368334A7BB180689168884219D0A2
:1050A80057EA060318D188F31188BFF36F8F6FF0A2
:1050B8000F0002B0BDE8F081916891F90E102161EE
:1050C8000133E3609368A36088F31188BFF36F8F9F
:1050D8000020EEE72169F2E791F90E1090F90E3001
:1050E8009942A8BF19466FF07E029142B8BF114697
:1050F8008B422EDD03F018F80546CDE900761A48F4
:1051080022464146FFF7F6FD0028E1D04FF0100394
:10511800EFF3118683F31288BFF36F8FA068D0B1C5
:10512800236821699C420AD04BB193F90E30994209
:10513800A8BF19466FF07E039942B8BF194602F01E
:10514800F3FF40B108483146FFF738FE6FF00A0018
:10515800AFE70025D1E7002DF4D186F31188BFF31E
:105168006F8FF3E7C80A00202A0B002037B51146D5
:105178004FF01002EFF3118582F31288BFF36F8F9F
:1051880004689CB12368426823F0030394420360D7
:1051980008BF43600121204603F03CF8044685F32C
:1051A8001188BFF36F8F204603B030BD51EA030268
:1051B800F5D000F10802CDE9001310462946FFF7A3
:1051C80099FD0028EFD1024B9B685C69EBE700BFB3
:1051D800C80A002038B504464FF01003EFF31185D4
:1051E80083F31288BFF36F8F02F0F3FE50B10022F1
:1051F800C0F8B02002F073FE29460848BDE83840E0
:10520800FFF7DCBDD4E902329A4218BF0133A3602C
:10521800022104F1100003F014FAEDE72A0B002034
:105228002DE9F04F4A4E85B004464FF0FF384FF055
:10523800FF394FF01003EFF3118783F31288BFF3A0
:105248006F8FD4F8B8508DB9022104F1D00002F064
:10525800F8FF002843D10023CDE90089029304F127
:10526800C00239463B48FFF7B7FEE2E7D4F8BC2056
:105278002B68C4F8B830954208BFC4F8BC30D4F8DD
:10528800D03043F00203C4F8D030EB6823F00403B5
:1052980043F00103EB606B6887F31188BFF36F8FEE
:1052A800284698474FF01003EFF3118B83F31288C9
:1052B800BFF36F8FEB68990723F0010219D4EA60F6
:1052C800D4F8D03023F00203C4F8D0308BF311881F
:1052D800BFF36F8FDB05ACD4FFF7D8FDA9E704F166
:1052E800C80500220121284602F0EEFE0028F8D168
:1052F800B1E7306823F00303EB600028E0D0002713
:10530800D0F800A03B460028DAD042689542014612
:105318000CD101689FB972683160824200D1716016
:1053280040F8083BFFF756FF39460023BAF1000F53
:105338000BD0DAF8002050460F469246E3E7396072
:105348007268824208BF7760EAE75246F3E700BF17
:10535800F80A00202A0B0020F8B5C3689A0704460B
:105368000F46C3F340062CD45B071AD40B680BB95D
:1053780083680B60E368DD0744BFA3683B603D6852
:105388004CBF02260126002D3AD01F4B9B68AB422A
:105398000AD0D5F8D030D807C3F3800214D46FF000
:1053A800120600233B6025E002F03BFDD5F8D03023
:1053B8000028F0D1D907C3F3C002F0D552B15B077A
:1053C80008D46FF00F06ECE7002AFAD1C3F3C00344
:1053D800002BF6D100232360D5F8BC3063B9C5E9AA
:1053E8002E44284602F038FFE36843F00403E360E4
:1053F8003B68A3603046F8BD1C60C5F8BC40F0E7C8
:105408006FF01506CDE700BFC80A00200146014825
:1054180002F05CBF90050020F0B589B0044600207A
:10542800C4E92E000E9D04F1C000C4E9300004F167
:10543800C800C4E932001DB32879002840F20110E1
:1054480008BF0120C4F8D00000204FF0FF364FF00D
:10545800FF37CDE90330CDE90100CDE90667094BF7
:1054680000942046FFF732FA25B1296811B1204689
:10547800FFF764F9204609B0BDE8F04002F0D9BC56
:105488000120DFE72952000837B5019008464FF0A0
:105498001001EFF3118481F31288BFF36F8FC16895
:1054A80011F00E0F16D153EA020508D101A9FFF732
:1054B80053FF84F31188BFF36F8F03B030BD41F001
:1054C8000801C160019981621030034900F06CF84D
:1054D8000120EEE70020ECE76F8200080146014852
:1054E800FFF7D2BF9005002008B50648064A0749CD
:1054F800121A02F094FCBDE80840054A054906481E
:1055080002F08DBC00000020A40100205CA9000866
:10551800000000005CA9000800000020034B1B6885
:105528000BB9FEF7DDBE0020704700BF000B00205E
:1055380010B50E4B1C689C4204D1FFF7EFFF6FF0CB
:10554800004010BDFFF7EAFF002CF8D0D4E9043280
:105558001B1A62EBE072B3F1004F72F10001EEDA50
:10556800002AACBF18460020EBE700BF0801002066
:1055780030B570B10B4B5B6898420AD0036843B1F1
:10558800D3E90421D0E90445121941EB0501C3E927
:105598000421D0E9003213605A600023C0E90033C7
:1055A80030BD00BF08010020B3F1FF3F08BFB2F1D2
:1055B800FF3FF8B504461D4616465CD081604FF0A3
:1055C8001003EFF3118783F31288BFF36F8F013253
:1055D80075F1FF3324DA2D49D1E900206FF001037A
:1055E8009B1A4FF0FF3262EB00009E1B60EB050038
:1055F800012E70F1000301DA01260020C4E90460DD
:10560800234ED6F800C07568B44508BF4FF0000CAB
:10561800BCF1000F0DD1C4E900652C6074601CE07A
:10562800FFF77CFF013645F10005361845EBE070C1
:10563800E4E7DCE90420D4E90431934271EB000E7D
:105648001ADAD21ADCF8043060EB0100CCE9042045
:10565800C4E900C31C60CCF804403368B34206D0E8
:105668009C4204D1FFF764FF0021FEF7BBFD87F3DE
:105678001188BFF36F8FF8BD9B1A61EB0001AC4531
:10568800C4E90431C7D0DCF800C0C1E788050020B0
:10569800080100202DE9F84F4FF01003EFF3118CAB
:1056A80083F31288BFF36F8FDFF8B0A0DFF8B090F4
:1056B8002C4FC9F80000DAF800000024504508BF54
:1056C80000200025D7E90021D9F80030E04680B352
:1056D800D0E9046C4FEAE37EB3427EEB0C0B05DAAB
:1056E800F61A6CEB0E04C0E9046422E0B21841EB30
:1056F800E671C0E90445C7E90021FFF739FF88F3DF
:105708001188BFF36F8F836898474FF01003EFF34A
:10571800118883F31288BFF36F8FD9F80030DAF855
:1057280000009B1B5045C446C9F80030CAD1D7E9D0
:1057380000219A1841EBE3730024C7E90023C9F854
:105748000040FFF7F5FE2146FEF74CFD88F311886F
:10575800BFF36F8FBDE8F84FFFF79CBA0801002030
:10576800000B00208805002010B54FF01003EFF360
:10577800118483F31288BFF36F8FFFF7CFFE064AB9
:105788000346D2E90001181841EBE37184F311884C
:10579800BFF36F8F10BD00BF88050020F8B5044621
:1057A8004FF01003EFF3118783F31288BFF36F8F65
:1057B800026822B187F31188BFF36F8FF8BDD0E973
:1057C8000A36581C46F10001022871F1000127D35E
:1057D800012B76F10001BCBF012316465D1E46F180
:1057E800FF3602F09EFD013041F10001401946EB01
:1057F8000101012871F100013BDB02F092FD01304B
:1058080041F100016FF00102401946EB0103121A41
:105818004FF0FF3161EB030318492046FFF7C4FE40
:10582800236B01332363236A73B187F31188BFF3B2
:105838006F8F236A204698474FF01003EFF31187C4
:1058480083F31288BFF36F8F54F8185FA542B1D065
:10585800002DAFD0284602F06DFB0023C5F8B0300C
:1058680087F31188BFF36F8F2846BDE8F84002F030
:1058780036BB6FF001024FF0FF33CDE7A5570008A4
:105888002DE9F04105461C4690461F464FF010038F
:10589800EFF3118683F31288BFF36F8FB4F1FF3FE4
:1058A80008BFB2F1FF3F05D186F31188BFF36F8FB0
:1058B800BDE8F081531C74F1FF3309DB012A74F150
:1058C8000003BCBF0122002412F1FF3844F1FF3766
:1058D800284602F00CFDDDE906010023C5E90A01AE
:1058E8002B63034942463B462846FFF75DFEDBE74C
:1058F800A55700082DE9F3471D46294B9F6801234A
:1059080087F8603087F8613052EA050316460CBF05
:105918000123002307F16002804602F0C6FD81469C
:105928004FF01003EFF3118A83F31288BFF36F8FE0
:1059380097F8604064B901465246404602F055FD6A
:105948008AF31188BFF36F8F204602B0BDE8F08755
:10595800002387F8603056EA050306D18AF31188D8
:10596800BFF36F8F6FF00A04EEE7CDE900650D4ACB
:105978000D485146FFF7BEF904464FF01003EFF308
:10598800118583F31288BFF36F8F2A464946404634
:1059980002F02BFD85F31188BFF36F8FD4E700BFAA
:1059A800C80A0020100100202A0B002038B5034641
:1059B8004FF01002EFF3118582F31288BFF36F8F57
:1059C800C160012181600068834206D185F3118896
:1059D800BFF36F8F0024204638BDD0E90032136032
:1059E8005A600023C0E9003302F0D6FD2946044678
:1059F8000148FFF7E3F9EEE72A0B0020014BC0F856
:105A0800A43070477801002038B504460D4602F0EE
:105A180008FA28B9064B9B68D3F8A4300BB938BDEF
:105A2800044B2A4621461846BDE8384002F031BEEC
:105A3800C80A002078010020014800F072BD00BFAC
:105A4800FEA7000838B5064C064DAC4201D300202D
:105A580038BDD4E90112204602F035FE1434F4E7CB
:105A6800780100208C0100201FB5094B029302AB7E
:105A780000240093074908488DF80C404FF0FF3385
:105A88004FF48062FFF7C8FC204604B010BD00BF89
:105A980040A80008C03D0020900500200CB430B597
:105AA80089B005460C461C22002101A802F053FFCC
:105AB80002238DF806300E4B0293059523462CB130
:105AC800B4F1004F28BF4FF00043013B1D440DAA1D
